{
  "contractName": "Carboncredit",
  "abi": [
    {
      "inputs": [
        {
          "internalType": "string",
          "name": "",
          "type": "string"
        }
      ],
      "name": "meter_owner",
      "outputs": [
        {
          "internalType": "address",
          "name": "",
          "type": "address"
        }
      ],
      "stateMutability": "view",
      "type": "function",
      "constant": true
    },
    {
      "inputs": [
        {
          "internalType": "string",
          "name": "public_key",
          "type": "string"
        }
      ],
      "name": "linkDevice",
      "outputs": [],
      "stateMutability": "nonpayable",
      "type": "function"
    },
    {
      "inputs": [
        {
          "internalType": "string",
          "name": "public_key",
          "type": "string"
        }
      ],
      "name": "getAddress",
      "outputs": [
        {
          "internalType": "address",
          "name": "",
          "type": "address"
        }
      ],
      "stateMutability": "view",
      "type": "function",
      "constant": true
    },
    {
      "inputs": [
        {
          "internalType": "string",
          "name": "public_key",
          "type": "string"
        },
        {
          "internalType": "int256",
          "name": "energy",
          "type": "int256"
        }
      ],
      "name": "fetchIotData",
      "outputs": [],
      "stateMutability": "nonpayable",
      "type": "function"
    },
    {
      "inputs": [],
      "name": "getData",
      "outputs": [
        {
          "components": [
            {
              "internalType": "string",
              "name": "public_key",
              "type": "string"
            },
            {
              "internalType": "int256",
              "name": "tuya_get_emasure_energy",
              "type": "int256"
            }
          ],
          "internalType": "struct Carboncredit.SmartMeter[]",
          "name": "",
          "type": "tuple[]"
        }
      ],
      "stateMutability": "view",
      "type": "function",
      "constant": true
    },
    {
      "inputs": [],
      "name": "_calCarbon",
      "outputs": [
        {
          "internalType": "int256",
          "name": "",
          "type": "int256"
        }
      ],
      "stateMutability": "nonpayable",
      "type": "function"
    },
    {
      "inputs": [],
      "name": "getCarbonCredit",
      "outputs": [
        {
          "internalType": "int256",
          "name": "",
          "type": "int256"
        }
      ],
      "stateMutability": "view",
      "type": "function",
      "constant": true
    },
    {
      "inputs": [],
      "name": "redeemCarbonCredit",
      "outputs": [],
      "stateMutability": "nonpayable",
      "type": "function"
    }
  ],
  "bytecode": "0x608060405234801561001057600080fd5b5061111d806100206000396000f3fe608060405234801561001057600080fd5b50600436106100885760003560e01c806395bb21b51161005b57806395bb21b5146100ed5780639df05e171461011d578063bf40fac11461013b578063dbd848d11461016b57610088565b80633bc5de301461008d5780633f6b6969146100ab57806362ca2eff146100b55780639075965a146100d1575b600080fd5b610095610189565b6040516100a29190610bae565b60405180910390f35b6100b36102c1565b005b6100cf60048036038101906100ca9190610d19565b610308565b005b6100eb60048036038101906100e69190610d8e565b610368565b005b61010760048036038101906101029190610d19565b610483565b6040516101149190610e2b565b60405180910390f35b6101256104cc565b6040516101329190610e55565b60405180910390f35b61015560048036038101906101509190610d19565b610513565b6040516101629190610e2b565b60405180910390f35b61017361055a565b6040516101809190610e55565b60405180910390f35b6060600260003373ffffffffffffffffffffffffffffffffffffffff1673ffffffffffffffffffffffffffffffffffffffff168152602001908152602001600020805480602002602001604051908101604052809291908181526020016000905b828210156102b8578382906000526020600020906002020160405180604001604052908160008201805461021d90610e9f565b80601f016020809104026020016040519081016040528092919081815260200182805461024990610e9f565b80156102965780601f1061026b57610100808354040283529160200191610296565b820191906000526020600020905b81548152906001019060200180831161027957829003601f168201915b50505050508152602001600182015481525050815260200190600101906101ea565b50505050905090565b6000600360003373ffffffffffffffffffffffffffffffffffffffff1673ffffffffffffffffffffffffffffffffffffffff16815260200190815260200160002081905550565b336000826040516103199190610f0c565b908152602001604051809103902060006101000a81548173ffffffffffffffffffffffffffffffffffffffff021916908373ffffffffffffffffffffffffffffffffffffffff16021790555050565b600061037383610513565b9050600260008273ffffffffffffffffffffffffffffffffffffffff1673ffffffffffffffffffffffffffffffffffffffff16815260200190815260200160002060019080546103c49291906107dc565b5060016040518060400160405280858152602001848152509080600181540180825580915050600190039060005260206000209060020201600090919091909150600082015181600001908051906020019061042192919061085e565b506020820151816001015550506001600260008373ffffffffffffffffffffffffffffffffffffffff1673ffffffffffffffffffffffffffffffffffffffff16815260200190815260200160002090805461047d9291906107dc565b50505050565b6000818051602081018201805184825260208301602085012081835280955050505050506000915054906101000a900473ffffffffffffffffffffffffffffffffffffffff1681565b6000600360003373ffffffffffffffffffffffffffffffffffffffff1673ffffffffffffffffffffffffffffffffffffffff16815260200190815260200160002054905090565b600080826040516105249190610f0c565b908152602001604051809103902060009054906101000a900473ffffffffffffffffffffffffffffffffffffffff169050919050565b600080600260003373ffffffffffffffffffffffffffffffffffffffff1673ffffffffffffffffffffffffffffffffffffffff168152602001908152602001600020805480602002602001604051908101604052809291908181526020016000905b8282101561068a57838290600052602060002090600202016040518060400160405290816000820180546105ef90610e9f565b80601f016020809104026020016040519081016040528092919081815260200182805461061b90610e9f565b80156106685780601f1061063d57610100808354040283529160200191610668565b820191906000526020600020905b81548152906001019060200180831161064b57829003601f168201915b50505050508152602001600182015481525050815260200190600101906105bc565b5050505090506000815190506000826001836106a69190610f5c565b815181106106b7576106b6610f90565b5b60200260200101516020015190506000836002846106d59190610f5c565b815181106106e6576106e5610f90565b5b6020026020010151602001519050600081836107029190610fbf565b905080600360003373ffffffffffffffffffffffffffffffffffffffff1673ffffffffffffffffffffffffffffffffffffffff1681526020019081526020016000205461074f9190611053565b600360003373ffffffffffffffffffffffffffffffffffffffff1673ffffffffffffffffffffffffffffffffffffffff16815260200190815260200160002081905550600360003373ffffffffffffffffffffffffffffffffffffffff1673ffffffffffffffffffffffffffffffffffffffff168152602001908152602001600020549550505050505090565b82805482825590600052602060002090600202810192821561084d5760005260206000209160020282015b8281111561084c578282600082018160000190805461082590610e9f565b6108309291906108e4565b5060018201548160010155505091600201919060020190610807565b5b50905061085a9190610971565b5090565b82805461086a90610e9f565b90600052602060002090601f01602090048101928261088c57600085556108d3565b82601f106108a557805160ff19168380011785556108d3565b828001600101855582156108d3579182015b828111156108d25782518255916020019190600101906108b7565b5b5090506108e091906109a0565b5090565b8280546108f090610e9f565b90600052602060002090601f0160209004810192826109125760008555610960565b82601f106109235780548555610960565b8280016001018555821561096057600052602060002091601f016020900482015b8281111561095f578254825591600101919060010190610944565b5b50905061096d91906109a0565b5090565b5b8082111561099c576000808201600061098b91906109bd565b600182016000905550600201610972565b5090565b5b808211156109b95760008160009055506001016109a1565b5090565b5080546109c990610e9f565b6000825580601f106109db57506109fa565b601f0160209004906000526020600020908101906109f991906109a0565b5b50565b600081519050919050565b600082825260208201905092915050565b6000819050602082019050919050565b600081519050919050565b600082825260208201905092915050565b60005b83811015610a63578082015181840152602081019050610a48565b83811115610a72576000848401525b50505050565b6000601f19601f8301169050919050565b6000610a9482610a29565b610a9e8185610a34565b9350610aae818560208601610a45565b610ab781610a78565b840191505092915050565b6000819050919050565b610ad581610ac2565b82525050565b60006040830160008301518482036000860152610af88282610a89565b9150506020830151610b0d6020860182610acc565b508091505092915050565b6000610b248383610adb565b905092915050565b6000602082019050919050565b6000610b44826109fd565b610b4e8185610a08565b935083602082028501610b6085610a19565b8060005b85811015610b9c5784840389528151610b7d8582610b18565b9450610b8883610b2c565b925060208a01995050600181019050610b64565b50829750879550505050505092915050565b60006020820190508181036000830152610bc88184610b39565b905092915050565b6000604051905090565b600080fd5b600080fd5b600080fd5b600080fd5b7f4e487b7100000000000000000000000000000000000000000000000000000000600052604160045260246000fd5b610c2682610a78565b810181811067ffffffffffffffff82111715610c4557610c44610bee565b5b80604052505050565b6000610c58610bd0565b9050610c648282610c1d565b919050565b600067ffffffffffffffff821115610c8457610c83610bee565b5b610c8d82610a78565b9050602081019050919050565b82818337600083830152505050565b6000610cbc610cb784610c69565b610c4e565b905082815260208101848484011115610cd857610cd7610be9565b5b610ce3848285610c9a565b509392505050565b600082601f830112610d0057610cff610be4565b5b8135610d10848260208601610ca9565b91505092915050565b600060208284031215610d2f57610d2e610bda565b5b600082013567ffffffffffffffff811115610d4d57610d4c610bdf565b5b610d5984828501610ceb565b91505092915050565b610d6b81610ac2565b8114610d7657600080fd5b50565b600081359050610d8881610d62565b92915050565b60008060408385031215610da557610da4610bda565b5b600083013567ffffffffffffffff811115610dc357610dc2610bdf565b5b610dcf85828601610ceb565b9250506020610de085828601610d79565b9150509250929050565b600073ffffffffffffffffffffffffffffffffffffffff82169050919050565b6000610e1582610dea565b9050919050565b610e2581610e0a565b82525050565b6000602082019050610e406000830184610e1c565b92915050565b610e4f81610ac2565b82525050565b6000602082019050610e6a6000830184610e46565b92915050565b7f4e487b7100000000000000000000000000000000000000000000000000000000600052602260045260246000fd5b60006002820490506001821680610eb757607f821691505b602082108103610eca57610ec9610e70565b5b50919050565b600081905092915050565b6000610ee682610a29565b610ef08185610ed0565b9350610f00818560208601610a45565b80840191505092915050565b6000610f188284610edb565b915081905092915050565b6000819050919050565b7f4e487b7100000000000000000000000000000000000000000000000000000000600052601160045260246000fd5b6000610f6782610f23565b9150610f7283610f23565b925082821015610f8557610f84610f2d565b5b828203905092915050565b7f4e487b7100000000000000000000000000000000000000000000000000000000600052603260045260246000fd5b6000610fca82610ac2565b9150610fd583610ac2565b9250827f8000000000000000000000000000000000000000000000000000000000000000018212600084121516156110105761100f610f2d565b5b827f7fffffffffffffffffffffffffffffffffffffffffffffffffffffffffffffff01821360008412161561104857611047610f2d565b5b828203905092915050565b600061105e82610ac2565b915061106983610ac2565b9250817f7fffffffffffffffffffffffffffffffffffffffffffffffffffffffffffffff038313600083121516156110a4576110a3610f2d565b5b817f80000000000000000000000000000000000000000000000000000000000000000383126000831216156110dc576110db610f2d565b5b82820190509291505056fea2646970667358221220ce1647eff4890f3e6d9bfc955b2a7b57c3eae78ccd0b2039c70c3749a606e96664736f6c634300080e0033",
  "immutableReferences": {},
  "source": "// SPDX-License-Identifier: GPL-3.0\npragma solidity 0.8.14;\npragma experimental ABIEncoderV2;\n\ncontract Carboncredit {\n    mapping(string => address) public meter_owner; //mapping meter_api_key with metamask wallet\n\n    // Smart Meter Data. Simplify version using only kWH.\n    struct SmartMeter {\n        string public_key;\n        int256 tuya_get_emasure_energy; //Get the energy usage during a specified period that is set on the mobile app. Once the meter is read, the usage data will be zeroed out to start a new measuring cycle.\n    }\n\n    SmartMeter[] meter_data; //array of data from that smart meter per period\n\n    mapping(address => SmartMeter[]) owner_data; //mapping meter data train with address\n    mapping(address => int256) owner_carbon; //mapping carbon credit data with address\n\n    // Link Metamask Wallet with IoT Device or centralize server data api (require call back to verify in the future)\n    function linkDevice(string memory public_key) external {\n        meter_owner[public_key] = msg.sender;\n    }\n\n    // get Public_Key for each address\n    function getAddress(string memory public_key)\n        public\n        view\n        returns (address)\n    {\n        return meter_owner[public_key];\n    }\n\n    // fetch data from iot device using oracle\n    function fetchIotData(string memory public_key, int256 energy) external {\n        address address_owner = getAddress(public_key);\n        meter_data = owner_data[address_owner];\n        meter_data.push(SmartMeter(public_key, energy));\n        owner_data[address_owner] = meter_data;\n    }\n\n    // output smart meter data train\n    function getData() public view returns (SmartMeter[] memory) {\n        return owner_data[msg.sender];\n    }\n\n    // calculate carbon credit from energy efficiency read from smart meter. Simplify version\n    function _calCarbon() public returns (int256) {\n        SmartMeter[] memory meter_data1 = owner_data[msg.sender];\n        uint256 meter_length = meter_data1.length;\n        int256 energy_after = meter_data1[meter_length - 1]\n            .tuya_get_emasure_energy;\n        int256 energy_before = meter_data1[meter_length - 2]\n            .tuya_get_emasure_energy;\n\n        int256 carbon_offset = energy_after - energy_before;\n        owner_carbon[msg.sender] = owner_carbon[msg.sender] + carbon_offset;\n        return owner_carbon[msg.sender];\n    }\n\n    // output carbon credit of user\n    function getCarbonCredit() public view returns (int256) {\n        return owner_carbon[msg.sender];\n    }\n\n    // redeem carbon credit from approval metaverse\n    function redeemCarbonCredit() external {\n        owner_carbon[msg.sender] = 0;\n    }\n}\n",
  "sourcePath": "/Users/apple/Desktop/carboncredit/contracts/Carboncredit.sol",
  "compiler": {
    "name": "solc",
    "version": "0.8.14+commit.80d49f37.Emscripten.clang"
  },
  "schemaVersion": "3.4.7",
  "updatedAt": "2022-05-26T14:25:07.237Z",
  "networkType": "ethereum",
  "devdoc": {
    "kind": "dev",
    "methods": {},
    "version": 1
  },
  "userdoc": {
    "kind": "user",
    "methods": {},
    "version": 1
  }
}